:100000000C945D000C9485000C9485000C94850084
:100010000C9485000C9485000C9485000C9485004C
:100020000C9485000C9485000C9485000C9485003C
:100030000C9485000C9485000C9485000C9485002C
:100040000C9488030C9485000C94F8030C94D20350
:100050000C9485000C9485000C9485000C9485000C
:100060000C9485000C9485000000000024002700FB
:100070002A0000000000250028002B0004040404CE
:100080000404040402020202020203030303030342
:10009000010204081020408001020408102001021F
:1000A00004081020000000080002010000030407FB
:1000B00000000000000000002A0411241FBECFEF42
:1000C000D8E0DEBFCDBF11E0A0E0B1E0E8EBFFE09B
:1000D00002C005900D92A63BB107D9F722E0A6EB2E
:1000E000B1E001C01D92A236B207E1F710E0CDE504
:1000F000D0E004C02197FE010E94CF07CC35D10784
:10010000C9F70E945D040C94DA070C94000080E4A7
:1001100080937C0080917A00806480937A00809143
:100120007A0086FDFCCF809178002091790090E0E4
:10013000922B089590E0FC01EC55FF4F2491FC01B7
:10014000E057FF4F3491FC01E458FF4FE491EE2358
:1001500009F43CC0222339F1233091F038F42130E6
:10016000A9F0223001F584B58F7D12C0273091F0BF
:100170002830A1F02430B9F4809180008F7D03C035
:10018000809180008F77809380000DC084B58F7739
:1001900084BD09C08091B0008F7703C08091B0000A
:1001A0008F7D8093B000F0E0EE0FFF1FEE58FF4F01
:1001B000A591B4919FB7F894611104C08C913095CA
:1001C000382302C0EC913E2B3C939FBF0895CF9300
:1001D000DF9390E0FC01E057FF4F2491FC01E458CD
:1001E000FF4F8491882361F190E0880F991FFC01F3
:1001F000E859FF4FC591D491FC01EE58FF4FA591EE
:10020000B491611109C09FB7F89488812095822329
:100210008883EC912E230BC0623061F49FB7F89471
:100220008881322F309583238883EC912E2B2C9359
:100230009FBF06C08FB7F894E8812E2B28838FBF0D
:10024000DF91CF9108953FB7F8948091BF019091CD
:10025000C001A091C101B091C20126B5A89B05C003
:100260002F3F19F00196A11DB11D3FBFBA2FA92F35
:10027000982F8827820F911DA11DB11DBC01CD01B2
:1002800042E0660F771F881F991F4A95D1F708959E
:100290008F929F92AF92BF92CF92DF92EF92FF9296
:1002A0006B017C010E9423014B015C01C114D1044C
:1002B000E104F104F1F00E942301DC01CB01881973
:1002C0009909AA09BB09883E9340A105B10570F3BD
:1002D00021E0C21AD108E108F10888EE880E83E017
:1002E000981EA11CB11CC114D104E104F10419F73A
:1002F000DDCFFF90EF90DF90CF90BF90AF909F90B9
:100300008F900895CF93DF93C4E1D1E0688180910D
:1003100010010E949A006A81809112010E949A0045
:10032000289681E0C433D80789F76CE370E080E059
:1003300090E0DF91CF910C9448012FB7F894609131
:10034000BB017091BC018091BD019091BE012FBF96
:100350000895CF92DF92EF92FF920F931F93CF9366
:10036000DF936C017A018B01C0E0D0E0CE15DF0590
:1003700081F0D8016D918D01D601ED91FC91019034
:10038000F081E02DC6010995892B11F02196EECF61
:100390007E01C701DF91CF911F910F91FF90EF90E8
:1003A000DF90CF900895089580E090E00895FC01DB
:1003B000538D448D252F30E0842F90E0821B930BCA
:1003C000541710F0CF96089501970895FC01918D70
:1003D000828D981761F0828DDF01A80FB11D5D96A7
:1003E0008C91928D9F5F9F73928F90E008958FEF15
:1003F0009FEF0895FC01918D828D981731F0828DC9
:10040000E80FF11D858D90E008958FEF9FEF08951F
:10041000FC01918D228D892F90E0805C9F4F821B83
:1004200091098F739927089583EC91E00E94080247
:1004300021E0892B09F420E0822F0895FC01848DAE
:10044000DF01A80FB11DA35ABF4F2C91848D90E0FE
:1004500001968F739927848FA689B7892C93A089D9
:10046000B1898C91837080648C93938D848D981363
:1004700006C00288F389E02D80818F7D80830895F6
:10048000EF92FF920F931F93CF93DF93EC0181E0E4
:10049000888F9B8D8C8D981305C0E889F9898081A0
:1004A00085FD26C0F62E0B8D10E00F5F1F4F0F73DA
:1004B0001127E02E8C8DE8120CC00FB607FCFACF86
:1004C000E889F989808185FFF5CFCE010E941E025F
:1004D000F1CF8B8DFE01E80FF11DE35AFF4FF08243
:1004E0009FB7F8940B8FEA89FB89808180620AC0EC
:1004F0009FB7F894EE89FF896083E889F989808144
:100500008370806480839FBF81E090E0DF91CF9112
:100510001F910F91FF90EF900895CF93DF93EC011F
:10052000888D8823C9F0EA89FB89808185FD05C013
:10053000A889B9898C9186FD0FC00FB607FCF5CF4D
:10054000808185FFF2CFA889B9898C9185FFEDCF95
:10055000CE010E941E02E7CFDF91CF91089580E087
:1005600090E0892B29F00E94140281110C94000064
:1005700008954F925F926F927F92AF92BF92CF9207
:10058000DF92EF92FF920F931F93CF93DF936C0153
:100590002A013B01C4E1D1E05C0188E0A80EB11C56
:1005A00086017E01F7016081F2E0EF0EF11CF80197
:1005B00080810E5F1F4F0E949A000A151B0591F75C
:1005C0002896F1E0C433DF0759F782E0481651045A
:1005D00050F0440C551C440C551CE5E04E1A5108D3
:1005E000C2010197F1F7DF91CF911F910F91FF9019
:1005F000EF90DF90CF90BF90AF907F906F905F9023
:100600004F9008950F931F93CF93C82F8B0161E0F4
:100610000E949A0029E0209FC001219F900D112483
:100620008C509E4F8230910538F0880F991F880FAB
:10063000991F05970197F1F760E08C2FCF911F91DB
:100640000F910C949A00009769F0FC010190002032
:10065000E9F73197AF01481B590BBC0183EC91E0DE
:100660000C94A90180E090E00895CF93DF930E945D
:100670002303EC0186E491E00E9423038C0F9D1F6D
:10068000DF91CF910895CF92DF92EF92FF920F9377
:100690001F93CF93DF93CDB7DEB7A1970FB6F89432
:1006A000DEBF0FBECDBF9B01AC0119A28E010F5D55
:1006B0001F4F8AE0C82ED12CE12CF12CCA01B901C0
:1006C000A70196010E94AD07605DF80162938F015A
:1006D000211531054105510589F7CF010E942303FA
:1006E0008C0186E491E00E942303800F911FA19664
:1006F0000FB6F894DEBF0FBECDBFDF91CF911F9133
:100700000F91FF90EF90DF90CF9008950E94D50752
:100710001F920F920FB60F9211242F933F938F9336
:100720009F93AF93BF938091BB019091BC01A09127
:10073000BD01B091BE013091BA0123E0230F2D37E6
:1007400020F40196A11DB11D05C026E8230F0296D5
:10075000A11DB11D2093BA018093BB019093BC01F0
:10076000A093BD01B093BE018091BF019091C001E3
:10077000A091C101B091C2010196A11DB11D80934C
:10078000BF019093C001A093C101B093C201BF917A
:10079000AF919F918F913F912F910F900FBE0F902E
:1007A0001F9018951F920F920FB60F9211242F933E
:1007B0003F934F935F936F937F938F939F93AF93E9
:1007C000BF93EF93FF9383EC91E00E941E02FF9191
:1007D000EF91BF91AF919F918F917F916F915F91B9
:1007E0004F913F912F910F900FBE0F901F90189532
:1007F0001F920F920FB60F9211242F938F939F93F6
:10080000EF93FF93E091D301F091D4018081E091C7
:10081000D901F091DA0182FD12C090818091DC0152
:100820008F5F8F732091DD01821751F0E091DC0121
:10083000F0E0ED53FE4F958F8093DC0101C0808185
:10084000FF91EF919F918F912F910F900FBE0F907D
:100850001F901895E3ECF1E01382128288EE93E08A
:10086000A0E0B0E084839583A683B78388E391E01A
:100870009183808385EC90E09587848784EC90E079
:100880009787868780EC90E0918B808B81EC90E05D
:10089000938B828B82EC90E0958B848B86EC90E03E
:1008A000978B868B118E128E138E148E80E190E0C2
:1008B00090936102809360020895789484B5826079
:1008C00084BD84B5816084BD85B5826085BD85B5F4
:1008D000816085BD80916E00816080936E00109272
:1008E00081008091810082608093810080918100ED
:1008F000816080938100809180008160809380007E
:100900008091B10084608093B1008091B0008160DB
:100910008093B00080917A00846080937A00809107
:100920007A00826080937A0080917A00816080935F
:100930007A0080917A00806880937A001092C100DA
:1009400060E08EE00E94E70061E088E00E94E7003E
:1009500061E080E10E94E70061E081E10E94E70040
:1009600061E089E00E94E70061E08AE00E94E70020
:1009700061E08BE00E94E70061E08CE00E94E7000C
:1009800061E08FE00E94E700C0E0D1E0888122961C
:1009900061E00E94E70021E0C830D207B9F7C8E063
:1009A000D1E08881229661E00E94E70081E0C031B9
:1009B000D807B9F761E0809110010E94E70061E07B
:1009C000809112010E94E700E091D301F091D401DF
:1009D00082E08083E091CF01F091D0011082E0911C
:1009E000D101F091D2018FEC80831092DB01E09174
:1009F000D701F091D80186E08083E091D501F09194
:100A0000D601808180618083E091D501F091D6018B
:100A1000808188608083E091D501F091D60180814A
:100A200080688083E091D501F091D60180818F7D2F
:100A3000808360E070E089E090E00E94020360E063
:100A400070E08AE090E00E94020360E070E08BE0DA
:100A500090E00E94020360E070E08CE090E00E9471
:100A6000020360E070E08FE090E00E94020360E02B
:100A700088E00E949A0000E110E051E1E52EF12C9F
:100A800064EB70E089E090E00E94020364EF71E0A3
:100A900080E090E00E94480160E070E089E090E032
:100AA0000E9402030E949D014B015C016093B6010C
:100AB0007093B7018093B8019093B901C2ECD1E073
:100AC0004AE154E060E070E080E091E00E94B90209
:100AD0002197B1F70E949D01681979098A099B093C
:100AE0000E94430389E491E00E94350364EB70E0C7
:100AF0008AE090E00E9402030E949D014B015C018C
:100B00006093B6017093B7018093B8019093B901D7
:100B1000C8E6D1E04AE154E060E070E080E091E0B6
:100B20000E94B9022197B1F70E949D0168197909C5
:100B30008A099B090E9443038EE591E00E943503D8
:100B400060E070E08AE090E00E94020364EB70E0F5
:100B50008BE090E00E94020368EC70E080E090E09F
:100B60000E94480160E070E08BE090E00E94020388
:100B70000E949D014B015C016093B6017093B70127
:100B80008093B8019093B901C4E8D3E04AE154E0FE
:100B900060E070E080E091E00E94B9022197B1F737
:100BA0000E949D01681979098A099B090E944303E3
:100BB00083E791E00E943503C3E0D0E064EB70E08E
:100BC0008CE090E00E94020364E670E080E090E038
:100BD0000E94480160E070E08CE090E00E94020317
:100BE0000E949D014B015C016093B6017093B701B7
:100BF0008093B8019093B90148E6C42EDD24D394C4
:100C000044E358E060E070E080E091E00E94B902C7
:100C100021E0C21AD108A1F70E949D016819790943
:100C20008A099B090E94430389E891E00E943503E9
:100C3000219721F6CAE5D0E040E157E260E070E09C
:100C400088E091E00E94B9022197B1F761E088E065
:100C50000E949A0068EE73E080E090E00E944801F4
:100C600060E088E00E949A00CAE5D0E040E157E2E7
:100C700060E070E088E091E00E94B9022197B1F74E
:100C800068EE73E080E090E00E9448010E948700D7
:100C90000097E1F38D3F23E0920779F58EE991E02B
:100CA0000E94350360E070E08FE090E00E94020354
:100CB00061E080E10E949A00CAE5D0E00E948201D2
:100CC0002197E1F760E080E10E949A0066E470E01D
:100CD0008FE090E00E94020368EC70E080E090E01A
:100CE0000E94480161E081E10E949A00CAE5D0E0DB
:100CF0000E9482012197E1F7B9C08A3E23E0920762
:100D000009F06DC084EA91E00E94350360E070E074
:100D10008FE090E00E940203C4E0D0E061E080E157
:100D20000E949A0062E370E080E090E00E94480137
:100D30003BE0C32ED12C0E94820181E0C81AD10869
:100D4000D1F760E080E10E949A0062E370E080E009
:100D500090E00E9448012BE0C22ED12C0E9482011B
:100D600021E0C21AD108D1F72197C1F60E94820171
:100D70000E94820166E470E08FE090E00E9402032E
:100D8000C4E0D0E060E081E10E949A0062E370E09C
:100D900080E090E00E9448019BE0C92ED12C0E9487
:100DA000820181E0C81AD108D1F761E081E10E9497
:100DB0009A0062E370E080E090E00E9448018BE0DE
:100DC000C82ED12C0E94820121E0C21AD108D1F78D
:100DD0002197C1F60E9482010E94820147C0813A98
:100DE00023E0920709F045C08AEA91E00E943503AA
:100DF00060E070E08FE090E00E940203C2E1D0E08A
:100E000061E080E10E949A0064E670E080E090E09A
:100E10000E9448010E9482010E9482010E94820178
:100E200060E080E10E949A0064E670E080E090E07B
:100E30000E9448010E9482010E948201219701F7CD
:100E40006EE670E08FE090E00E9402036CE271E0D9
:100E500080E090E00E94480161E081E10E949A00F8
:100E600064EF71E080E090E00E94480160E081E181
:100E700063C08435934009F067C080EB91E00E9425
:100E8000350360E070E08FE090E00E940203C2E171
:100E9000D0E0C0906002D090610261E08C2D0E9491
:100EA0009A000E9482010E9482010E94820160E0F9
:100EB0008C2D0E949A0066E970E080E090E00E942C
:100EC00048010E9482010E94820180E1C816D1047B
:100ED00029F4F0926102E092600204C01093610272
:100EE000009360022197A9F660E570E08FE090E042
:100EF0000E9402036CE271E080E090E00E944801F1
:100F0000109361020093600261E080E10E949A0008
:100F1000CAE5D0E00E9482012197E1F76EE670E019
:100F20008FE090E00E94020364EF71E080E090E0C7
:100F30000E94480160E080E10E949A0068EC70E045
:100F400080E090E00E94480160E070E08FE090E077
:100F50000E9402030E94AF0293CDA1E21A2EAA1BA7
:100F6000BB1BFD010DC0AA1FBB1FEE1FFF1FA21759
:100F7000B307E407F50720F0A21BB30BE40BF50B56
:100F8000661F771F881F991F1A9469F760957095DF
:100F9000809590959B01AC01BD01CF010895EE0FA6
:100FA000FF1F0590F491E02D099481E090E0F89402
:080FB0000C94DA07F894FFCF5E
:100FB800000001000200030004000500060007000D
:100FC80012001300010001000000000000000100F1
:100FD8000100000000000000010001000100000005
:100FE80000000100000000004002A901D7018D02A5
:100FF8000802E601FA010D0A0065787065637465F8
:101008006420746F206265203530306D7300657818
:1010180070656374656420746F20626520343030B5
:101028006D7300657870656374656420746F206201
:101038006520313030306D73006578706563746594
:101048006420746F206265203830306D73004B6502
:10105800792031004B65792032004B6579203300C7
:061068004B657920340005
:00000001FF
